:100000000C942D060C9455060C9455060C9455062C
:100010000C9455060C94D52F0C9455060C9455064B
:100020000C9455060C9455060C9455060C945506E4
:100030000C9455060C9455060C9455060C945506D4
:100040000C945F2E0C9455060C9455060C94550692
:100050000C9455060C9455060C9455060C945506B4
:100060000C94A92E0C9455060C9455060C94550628
:100070000C9455060C9455060C9455060C94550694
:100080000C9455060C9455060C9455060C94550684
:100090000C9455060C9455060C9455060C94550674
:1000A0000C9455060C9455060C9455060C94550664
:1000B0000C945506036EDB363D9A9999993DABAA8F
:1000C000AA2A3E000000803F084AD73B3BCE016E83
:1000D00084BCBFFDC12F3D6C74319ABD56833DDA9F
:1000E0003D00C77F11BED9E4BB4C3E916BAAAABEAE
:1000F000000000803F072C7AA5BA6CC590DA3B93CC
:1001000065FC8BBC53F810FD3C5692834DBD879D1A
:100110003AB63DCBC9BF5BBE73DA0FC93F05A84CE9
:10012000CDB2D44EB93836A9020C50B991868808A0
:100130003CA6AAAA2ABE000000803F08000000BE1C
:10014000922449123EABAAAA2ABECDCCCC4C3E008A
:10015000000080BEABAAAAAA3E00000000BF0000BB
:1001600000803F0000000000084178D3BB4387D1E6
:10017000133D190E3CC3BD4282AD2B3E68EC827626
:10018000BED98FE1A93E4C80EFFFBE01C4FF7F3F87
:1001900000000000000664EC1B3C04BC163E3BE57E
:1001A000B93CC93C37C29E5A3D660498083EEA698C
:1001B000AAAA3E000000803F07634236B79BD8A73B
:1001C0001A39685618AEBAAB558C1D3CB7CC57637C
:1001D000BD6DEDFD753EF6177231BF000000803F2A
:1001E0004B4545500057414B45004155544F003158
:1001F0003244500038204450003420445000322013
:100200004450002036306D002033306D0020203106
:100210006D002020316D00203330730020313073A9
:10022000002020357300313030250020373525007F
:100230002035302500203235250020203025004291
:100240004C442054494D452000424C4420444154E4
:100250004520004652414D2020202020005052458C
:10026000434953494F4E004155544F2D534C502054
:10027000004155544F2D44494D20004252474854A7
:100280004E53532000414C5449545544452000508E
:1002900052455353555245200054454D502020207F
:1002A00020200043505520434C434B20004D4355E4
:1002B00020202020202000564343202020202020E2
:1002C00000465245452052414D2000555054494D5D
:1002D0004520202000417665726167652020284115
:1002E000202B204229202F2032004162736F6C7531
:1002F00074652076616C7565206F66204120004E24
:1003000061747572616C206C6F67206F662041208C
:10031000202020004C6F67206261736520313020FF
:100320006F66204120202020005371756172652086
:10033000726F6F74206F6620412020202000417270
:100340006374616E202028646567206F7574707512
:10035000742900417263636F7320202864656720ED
:100360006F7574707574290041726373696E202013
:1003700028646567206F7574707574290054616E08
:1003800067656E74202864656720696E70757429CE
:100390002000436F73696E652020286465672069BB
:1003A0006E70757429200053696E65202020202806
:1003B00064656720696E707574292000506F7765D9
:1003C00072202020202020202041205E204220205A
:1003D000004D6F64756C6F2020202020202041206C
:1003E0002520422020004469766964652020202071
:1003F00020202041202F20422020004D756C746960
:10040000706C79202020202041202A2042202000CA
:100410005375627472616374202020202041202D66
:100420002042202000416464202020202020202021
:10043000202041202B2042202000AED580A83FD391
:1004400000408D142002A1C8DA12817FD9F1DB406F
:10045000A4A6AF20205B695D20546F75636820619E
:100460006E79206B657920200020272D2D2D2D2DD4
:100470002D2D2D2D2D2D2D2D2D2D2D2D2D270020EC
:100480007C20202020202020202020202020202010
:100490002020207C00207C202020202020202020C4
:1004A0002020202020202020207C00207C20205B79
:1004B0002020506C616E6B744F5320205D20207C97
:1004C00000207C20202020202020202020202020F0
:1004D00020202020207C00207C2020202020202084
:1004E00020202020202020202020207C00202E2DB5
:1004F0002D2D2D2D2D2D2D2D2D2D2D2D2D2D2D2D2C
:100500002D2E00203C2D203A205354502057544388
:1005100048203A20202D3E00203C2D203A205359DF
:100520005320494E464F203A20202D3E00203C2D9E
:10053000203A2053455454494E4753203A20202D09
:100540003E00203C2D203A204156522043414C434E
:10055000203A20202D3E0057616974696E6720663D
:100560006F72207265636F6E6E656374696F6E2E55
:100570002E2E004652414D204E4F5420464F554E90
:1005800044002D2D2D2D2D2D2D2D2D2D2D2D2D2DB1
:10059000004652414D204E4F5420464F554E440088
:1005A000014080BFFF20202020202020202020206C
:1005B000202020202020202020002020202020205B
:1005C00020202020202020205B425D41434B002D35
:1005D0002D2D5B204552524F52205D2D2D2D2D2D5E
:1005E0002D2D2D0020685061002027432020002061
:1005F000274620200020202020602D2D2D2D2D2D60
:100600002D2D2D2D272020202000202020202E2DB4
:100610002D2D2D2D2D2D2D2D2D2E20202020005F38
:100620005F5F5F4150504C49434154494F4E535FC7
:100630005F5F5F002020202020202020202020201D
:100640002020202020202020003D3D5B4D61696E50
:10065000204D656E755D3D3D3D3D3D3D3D0020209D
:100660005B005B505D20205B4E5D202020205B3EC8
:100670005D20205B425D003D3D5B53455454494E37
:1006800047535D3D3D3D3D3D3D3D3D0020203E3ECF
:1006900000464143542E524553455400535720536E
:1006A000435245454E2000EA01E501E00150524524
:1006B000434953494F4E2000FE01F901F401EF0177
:1006C0004155544F2D534C454550000D020802032F
:1006D000024155544F2D44494D20200021021C0257
:1006E000170212024252494748544E455353003AAA
:1006F00002350230022B02260231323A35393A35C0
:1007000030004D6172203238203230323600415490
:100710006D656761333238504200CB02C102B702C7
:10072000AD02A30299028F0285027B027102670269
:100730005D02530249023F025B505D20205B4E5D2B
:10074000202020205B3E5D20205B425D005B5359F2
:100750005320494E464F5D202000640000000000F9
:100760000000102700000000000000E1F505000077
:1007700000000010A5D4E800000020202020004444
:10078000505B003D5B4156522043414C435D3D0070
:10079000202B202D202A202F2025205E534E43532E
:1007A000544E41534143415453514C474C4E4142A6
:1007B00041560020202020005D20200020205B00EA
:1007C00020202020005B505D20205B4E5D202020FB
:1007D000205B3E5D20205B425D003D202020205BB1
:1007E0004449562F5A45524F215D20202020003D7C
:1007F000202020205B4F564552464C4F57215D200C
:100800002020200020202020202020202020202008
:1008100020202020202020200025041004FB03E6B7
:1008200003D103BC03A70392037D03680353033E74
:100830000329031403FF02EA02D5025B505D202066
:100840005B4E5D202020205B3E5D20205B425D00F2
:100850002D2D2D2D2D2D2D2D2D2D2D2D2D2D2D2DC8
:100860002D2D2D2D00110F0B072A2A2053415645FF
:100870004420544F204652414D202A2A20004F56F2
:100880004552464C4F572121004449562F5A455254
:100890004F21002A2A204E4F2053415645442056CE
:1008A000414C5545202A2A004F564552464C4F5739
:1008B00021004449562F5A45524F21002A2A204EE2
:1008C0004F2053415645442056414C5545202A2A35
:1008D000002A2A20534156454420544F2046524175
:1008E0004D202A2A20005B53544152545D20202081
:1008F0002020205B52455345545D005B50415553C9
:10090000455D2020202020205B52455345545D004A
:100910005B464C41475D20202020202020205B4862
:100920004F4D455D002D2D2D2D2D2D2D2D2D2D2D9A
:100930002D2D2D2D2D2D2D2D2D0020202020202D55
:100940002D3A2D2D3A2D2D2E2D2D20202020002D1D
:100950002D2D2D2D2D2D2D2D2D2D2D2D2D2D2D2DC7
:100960002D2D2D003D3D5B53544F5057415443486E
:100970005D3D3D3D3D3D3D3D005B53544152545D29
:100980002020202020205B52455345545D005B50C1
:10099000415553455D2020202020205B5245534582
:1009A000545D0000030C0F30333C3FC0C3CCCFF08C
:1009B000F3FCFF00000507206000000000000000BD
:1009C0005F00000007000700147F147F14242A7FB3
:1009D0002A12231308646236495620500008070380
:1009E00000001C2241000041221C002A1C7F1C2AFE
:1009F00008083E0808008070300008080808080051
:100A00000060600020100804023E5149453E00424B
:100A10007F400072494949462141494D331814121B
:100A20007F1027454545393C4A4949314121110943
:100A3000073649494936464949291E000014000035
:100A4000004034000000081422411414141414004F
:100A50004122140802015909063E415D594E7C129B
:100A600011127C7F494949363E414141227F414133
:100A7000413E7F494949417F090909013E414151B0
:100A8000737F0808087F00417F41002040413F01FB
:100A90007F081422417F404040407F021C027F7F3C
:100AA0000408107F3E4141413E7F090909063E414D
:100AB00051215E7F09192946264949493203017FA0
:100AC00001033F4040403F1F2040201F3F4038402F
:100AD0003F631408146303047804036159494D43C8
:100AE000007F4141410204081020004141417F0440
:100AF0000201020440404040400003070800205427
:100B00005478407F28444438384444442838444486
:100B1000287F385454541800087E090218A4A49C55
:100B2000787F0804047800447D40002040403D0068
:100B30007F1028440000417F40007C047804787CCA
:100B4000080404783844444438FC18242418182431
:100B50002418FC7C08040408485454542404043F1A
:100B600044243C4040207C1C2040201C3C40304021
:100B70003C44281028444C9090907C4464544C444D
:100B800000083641000000770000004136080002EE
:100B9000010204023C2623263C3A0419804000ED61
:100BA00004D704C104AB0495047F046904530445CD
:100BB00052524F520042055D2ED92C00002D0546A1
:100BC000125A200000180594225A223422030540AC
:100BD0001A791F9B19011E3C050A1E3C00000000EB
:100BE0002300260029002C000A0D0E090003020034
:100BF00000040508000000000000000000000000E4
:100C000000000000000000250028002B002E00003E
:100C1000000000240027002A002D0004040404041E
:100C20000404040202020202020303030303030298
:100C30000203050505050102040810204080010299
:100C40000408102001020408102040804001020422
:100C5000080204080C00DF2F333411241FBECFEF2D
:100C6000D8E0DEBFCDBF11E0A0E0B1E0EEE0FBE7F1
:100C700002C005900D92A634B107D9F722E0A6E490
:100C8000B1E001C01D92A438B207E1F716E0CCE252
:100C9000D6E004C02197FE010E94E53BCB32D1078C
:100CA000C9F70E944F300C947A3D0C940000880FD5
:100CB0008093BA0008959B01AC0160E074E284EF78
:100CC00090E00E94A43B20513109410951095695F9
:100CD0004795379527952093B8000895882321F0EC
:100CE00085EC8093BC00089585E8FBCF85ED80936B
:100CF000BC008091BC0084FDFCCF1092F3010895EC
:100D000085EC8093BC001092F30108950F93CF936C
:100D1000DF93EC0189819A81DC01ED91FC910280E5
:100D2000F381E02D41E050E00995019789F40980B5
:100D3000DA81C02D6B897C89EEA1FFA101E021E061
:100D40004E898A8909951D8A1E8A1F8A91E0811120
:100D500090E0892FDF91CF910F910895CF93DF938A
:100D600090E0FC01EA5CF34F2491855E934FFC0117
:100D700084918823C1F090E0880F991FFC01E15F06
:100D8000F34FC591D491FC01ED5FF34FA591B49160
:100D90009FB7F8948881E22FE0958E2388838C9109
:100DA000E823EC939FBFDF91CF91089582508D305F
:100DB00008F03EC0E82FF0E0E052F94F0C94E53B1C
:100DC00015071907ED06F30618071807F706FD06BD
:100DD0000107070718070B071107809180008F771D
:100DE000809380000895809180008F7DF9CF80915D
:100DF000B0008F778093B00008958091B0008F7D10
:100E0000F9CF809190008F77809390000895809122
:100E100090008F7DF9CF8091A0008F778093A00004
:100E200008958091A0008F7DF9CF84B58F7784BD20
:100E3000089584B58F7DFBCFCF93DF93282F30E0CB
:100E4000F901E851F44F8491F901EA5CF34FD49130
:100E5000F901E55EF34FC491CC23A1F081110E940A
:100E6000D606EC2FF0E0EE0FFF1FE452F44FA591F1
:100E7000B491EC91ED2381E090E009F480E0DF9102
:100E8000CF91089580E090E0FACF1F93CF93DF9346
:100E9000282F30E0F901E851F44F8491F901EA5C20
:100EA000F34FD491F901E55EF34FC491CC23A9F03F
:100EB000162F81110E94D606EC2FF0E0EE0FFF1FD7
:100EC000ED5FF34FA591B4918FB7F894EC911111A8
:100ED00008C0D095DE23DC938FBFDF91CF911F91A7
:100EE0000895DE2BF8CF1092F30181E08093F50195
:100EF0001092F40161E082E10E94450761E083E124
:100F00000E944507E9EBF0E080818E7F808380813D
:100F10008D7F808388E48093B80085E48093BC0053
:100F20000895ECEBF0E080818A7B808360E082E1D1
:100F30000E94450760E083E10C9445073FB7F894B1
:100F40008091190290911A02A0911B02B0911C028B
:100F500026B5A89B05C02F3F19F00196A11DB11D14
:100F60003FBFBA2FA92F982F8827BC01CD01620F50
:100F7000711D811D911D42E0660F771F881F991F0B
:100F80004A95D1F708958F929F92AF92BF92CF92D8
:100F9000DF92EF92FF924B015C010E949E076B0172
:100FA0007C010E949E076C197D098E099F09683E8D
:100FB000734081059105A8F321E0821A9108A108E8
:100FC000B10888EEC80E83E0D81EE11CF11C811424
:100FD0009104A104B10429F7FF90EF90DF90CF9026
:100FE000BF90AF909F908F9008952FB7F894609125
:100FF00015027091160280911702909118022FBF6E
:101000000895AF92BF92CF92DF92EF92FF920F932B
:101010001F93CF93DF936C017B018B01040F151F8E
:10102000EB015E01AE18BF08C017D10759F06991F6
:10103000D601ED91FC910190F081E02DC60109955A
:10104000892B79F7C501DF91CF911F910F91FF9007
:10105000EF90DF90CF90BF90AF900895CF93DF9344
:10106000EC018D85882329F081508D87DF91CF9108
:1010700008959C818E819817C8F788896827E88130
:10108000F9810084F185E02D42E0CE0109958C8143
:101090008F5F8C83EBCF2091CF01260F3327331F37
:1010A00021323105ECF42091F301FC0190E080E065
:1010B000243069F082E00895A091CF012191AC0124
:1010C00041555E4FA40FB52FB11D2C930196861785
:1010D00098F38091CF01680F6093CF0180E008956D
:1010E00081E008950F93413208F044C09091F301DC
:1010F0009111FCCF92E09093F3010093F5019FEFE3
:101100009093F2017093F7016093F6011092F90148
:101110004093F8011092FA019091FA01880F892BFF
:101120008093FA018091F401813011F51092F4015D
:101130008091FA018093BB008091BC0083FDF8CFC1
:1011400085EC8093BC00222321F08091F301823052
:10115000D1F38091F2018F3F79F08091F2018032DA
:1011600069F08091F201803359F084E00F91089585
:1011700085EEE7CF81E0FACF80E0F8CF82E0F6CFCE
:1011800083E0F4CF4132E0F59091F3019111FCCF6F
:1011900091E09093F3012093F5012FEF2093F2015A
:1011A0007093F7016093F6011092F901240F2093D8
:1011B000F8019093FA019091FA01880F892B80939E
:1011C000FA018091F4018130C9F41092F401809108
:1011D000FA018093BB008091BC0083FDF8CF85ECC1
:1011E0008093BC008091F3018130E1F38091F9019B
:1011F000841710F44091F901842F089585EEF0CF03
:1012000040E0FACFE0913A02F0913B02309729F0AA
:10121000109237021092380209940895DC018091EF
:101220003C0290913D02892B19F1909132028091FC
:1012300033029817E8F090E0292F30E0261737079F
:101240006CF4FD01E20FF31F4081E0913002F09158
:101250003102E20FF31F40839F5FEECF1092320204
:1012600060933302E0913C02F0913D02CB0109947E
:1012700008950895DC015096EC91509751968C9109
:101280005197E81748F41E968D919C91E80FF92F1D
:10129000F11D808190E008958FEF9FEF0895FC018C
:1012A000908981892FEF3FEF981740F4A685B78585
:1012B000A90FB11D2C9130E09F5F908BC90108955B
:1012C000FC0181899089891B990B0895CF92DF9247
:1012D000EF92FF920F931F93CF93DF938C01CB017B
:1012E0007A01D80157962C915797222389F0EB0168
:1012F0006B01C40ED51ECC15DD0579F06991D801BE
:10130000ED91FC910190F081E02DC8010995F3CF9A
:101310009896ED91FC91642F0995C701DF91CF91CB
:101320001F910F91FF90EF90DF90CF900895CF9392
:10133000DF931F92CDB7DEB7FC01698387898823CD
:10134000F9F02689848595852817190654F081E0DF
:1013500090E09383828390E080E00F90DF91CF91C3
:1013600008958981A58923893489A20FB32FB11DDE
:101370008C9385898F5F858B868B81E090E0EDCFA4
:1013800000A4F1A5E02D61E0CE0101960995F5CF0D
:101390000F93CF93DF93EC016B897C89EEA1FFA1C2
:1013A00001E021E04E898A8909951D8A1E8A1F8ADB
:1013B000DF91CF910F910895CF93DF93EC018B8153
:1013C000882391F0E981FA81888191E0978B828B63
:1013D000158A168ACF010E94C80991E0811190E018
:1013E000892FDF91CF910895E981FA81108A118ABE
:1013F000158A168A048CF58DE02D099581E08B8382
:10140000CE010E94DC09982F8111DCCFE9CF84E95D
:101410008093BC0085E69091BC0094FF03C081508E
:10142000D1F7089581E008958F929F92AF92BF9275
:10143000CF92DF92EF92FF920F931F938091AE01B4
:101440008823A1F10E94F507C0909501D0909601E4
:10145000E0909701F09098014B015C018C189D0879
:10146000AE08BF08C12CD12C76019401A501B601AC
:10147000C701A090A201B090A301C090A401D09098
:10148000A501E090A601F090A7010091A80110919C
:10149000A9010E94423D1F910F91FF90EF90DF90B4
:1014A000CF90BF90AF909F908F900895812C912CFA
:1014B000A12CB12CC12CD12CE12CF12CD6CFDB01ED
:1014C00012961C92129790919101913059F128F047
:1014D000923019F0933099F108958C30D9F040F49E
:1014E0008A3071F08B3091F090E29C93805D0BC05C
:1014F0008D30A1F08E30C1F78CE48C9384E403C06E
:1015000082E48C9383E511968C9308958EE48C93FA
:1015100087E4F9CF83E48C9382E5F5CF8FE48C9355
:101520008BE4F1CFE82FF0E0EE0FFF1FE057F84F0C
:1015300084918C933196E4911196EC93089593E401
:101540009C93882349F3813021F083E58C9386E5D1
:10155000DACF88E4D8CF2F923F924F925F926F926A
:101560007F928F929F92AF92BF92CF92DF92EF9233
:10157000FF920F931F93CF93DF93CDB7DEB7E6971C
:101580000FB6F894DEBF0FBECDBF2D8B3C8F4D8FB5
:101590005E8F6F8F372E2C0108A78A8E9B8EA9A68F
:1015A000BAA6CBA6DCA6EDA6FEA6A0E00E94693DE9
:1015B0000CF097C0211531054105510561057105F4
:1015C0008105A0E89A0709F497C00E94FC3C222EEE
:1015D0003F8B488F952E3B01882E998FAA8CBB8C10
:1015E000C9A4DAA4EBA4FCA40DA51EA5222D3F8955
:1015F000488D592DB301882D998D0E949F3C2FA7AE
:1016000038AB49AB5AAB6BAB7CAB8DAB9EAB28A375
:1016100039A34AA35BA36CA37DA38EA39FA3222D12
:101620003F89488D592DB301882D998D0E949D3C8D
:101630002F8B388F498F5A8F6B8F272E3C012D8926
:101640003C8D4D8D5E8D6F8D732DC201A0E0912C70
:101650000E94693D44F48DE22D96AEADBFAD2D974D
:101660008C93992493942FA538A949A95AA96BA9B9
:101670007CA98DA99EA9A0E00E94693D09F046C001
:1016800033243394390C2D96EEADFFAD2D97E90D33
:10169000F11D80E38083B1E0B30DBD8B2D96EEADDF
:1016A000FFAD2D97E30DF11D8EE28083FE01319693
:1016B0002F0188A5E80FF11D4E165F0609F075C0D1
:1016C00088A58F5F380E8D892D96AEADBFAD2D9755
:1016D000A80FB11D831509F491C091918F5F9C9360
:1016E000F3CF2D88BC8DBF8BED8DE88F9E8C6F8CDA
:1016F000772E882E598E72CF212C1F8A188E912C0E
:10170000612C712C812CF0E8F98F68CFE0E0CE01DC
:1017100001962C01332433943E0ED201AE0FB11D3D
:10172000BE8BAD8B9AE0A92EB12CC12CD12CE12C13
:10173000F12C00E010E028A139A14AA15BA16CA125
:101740007DA18EA19FA10E949D3C205DED89FE8917
:10175000208328A139A14AA15BA16CA17DA18EA102
:101760009FA10E949F3C28A339A34AA35BA36CA31B
:101770007DA38EA39FA3E32DA0E00E94693D51F6B7
:10178000C201830D911D292D2D96EEADFFAD2D9734
:10179000E20FF11D2F5F8415950529F0DC013E91C4
:1017A000CD013083F1CF390C76CF4F018AE0A82EDE
:1017B000B12CC12CD12CE12CF12C00E010E02F89B0
:1017C000388D498D5A8D6B8D722DC3010E949D3CC1
:1017D000205DD4012E934D012F89388D498D5A8D6E
:1017E0006B8D722DC3010E949F3C2F8B388F498FC8
:1017F0005A8F6B8F272E3C01F4015ECF1C928D898E
:10180000B8A58B0FE6960FB6F894DEBF0FBECDBF1E
:10181000DF91CF911F910F91FF90EF90DF90CF90CC
:10182000BF90AF909F908F907F906F905F904F9000
:101830003F902F9008951092920110929301109270
:10184000600110929401089580911D0290E0FC01C6
:10185000EF5AF34F4491FC01EB59F74F2491E0917B
:1018600092013091930190918E019B3041F1A8F447
:101870009A30C9F08091940181112BC03217A8F4DD
:1018800021E02E0F20939201F0E0EF59FE4F905D82
:1018900090833F5F3093930108959C30B9F09D3061
:1018A00049F781E00895E11102C080E00895E15018
:1018B000E0939201E317C8F7E0939301F6CF80918C
:1018C000600191E0892780936001EFCF0E941B0C9B
:1018D000ECCF8E2F831B841740F781E08E0F80930F
:1018E0009201F0E0EF59FE4F905D9083DECF1092B1
:1018F00091011092850110928E010E941B0C109292
:101900000C021092860110928701109288011092A9
:10191000890110928A0110928B0110928C01109211
:101920008D0110927D0110927E0110927F01109224
:101930008001109281011092820110928301109215
:101940008401109275011092760110927701109225
:1019500078011092790110927A0110927B01109215
:101960007C011092900110928F0110925F010895F6
:10197000909191019D7F81E009F080E008954F9260
:101980005F926F927F92AF92BF92CF92DF92EF926F
:10199000FF920F931F93CF93DF93CDB7DEB72A97B4
:1019A0000FB6F894DEBF0FBECDBF7C01B62ECA01C4
:1019B000B90120E03AE0432E512C612C712C6115C5
:1019C000710581059105E9F481E08B0DEB0CF11CAB
:1019D00090E3F70190832A960FB6F894DEBF0FBE0E
:1019E000CDBFDF91CF911F910F91FF90EF90DF90CE
:1019F000CF90BF90AF907F906F905F904F90089581
:101A00002A2DAA24A394A20E022F220F110BCC245C
:101A1000C394D12CCC0EDD1EC00ED11EA3019201A9
:101A20000E94A43B605DF6016083B901CA016115A3
:101A300071058105910521F78B2D07FDCCCFF701AD
:101A4000E80FF11DA1E0B0E0AC0FBD1FA00FB11F6A
:101A50009C919083015011098F5FEFCF81E08093BB
:101A6000390280E5809334021092370210923802D6
:101A700082E292E00E94C80991E0811190E0892FF2
:101A80000895CF93C82F60E082E292E00E94970908
:101A90006C2F82E292E0CF910C94970998E0899F95
:101AA000F0011124E954F44F85919491009711F0BD
:101AB000FC0109940895FC016093BC002FEF3FEFF7
:101AC0008091BC0087FF06C09091B900987F9083F9
:101AD00081E008952150310999F780E00895CF936E
:101AE000DF93EC016093BB0064E80E945B0D8823E8
:101AF00029F081E09881983209F080E0DF91CF9160
:101B00000895DF92EF92FF920F931F93CF93DF938D
:101B1000EC01D62EF42E8C89882329F0411103C0C4
:101B20000E94070A1C8A8E010E5E1F4F8C8981114C
:101B300019C0EB8864EAC8010E945B0D882361F03C
:101B40008A89883011F0803139F4EE0CE092BB00C4
:101B500064E8C8010E945B0D60E0F11060E4C80118
:101B60000E946F0D6D2DC8010E946F0D82E0F8126A
:101B70000BC08C898F5F8C8BDF91CF911F910F9160
:101B8000FF90EF90DF9008950E94070A1C8AF4CF1F
:101B9000DC01ED91FC910084F185E02D40E0099499
:101BA0000F931F93CF938C01FC016483C085C60FF4
:101BB0006C2F6F700E94C80D6C2F62956F70606102
:101BC000C801CF911F910F910C94C80DFC01278182
:101BD000269526952695621738F465832385620F2E
:101BE0006770606B0C94C80D08951F93CF93DF93BB
:101BF000EC01142F8E81681718F4CE010E94D00DCD
:101C0000612FCE01DF91CF911F910C94E60DCF9201
:101C1000DF92EF92FF920F931F93CF93DF93EC012C
:101C2000F62EC42ED22E1D868F818695869586959A
:101C3000081710F00FEF080F1D2D011780F0412F2E
:101C40006F2DCE010E94F50DEF2CCE1430F0688977
:101C5000CE010E942E08E394F8CF1F5FEECF4D2DEA
:101C60006F2DCE01DF91CF911F910F91FF90EF90DB
:101C7000DF90CF900C94F50D2F923F924F925F9290
:101C80006F927F928F929F92AF92BF92CF92DF928C
:101C9000EF92FF920F931F93CF93DF9300D000D06A
:101CA00000D01F92CDB7DEB79F838E83DC011E96D6
:101CB0008D919C91009709F47EC1FC01329654905D
:101CC00031962491E22EF12CB7E0EB0EF11C43E0AB
:101CD000F594E7944A95E1F7E9823196349131968B
:101CE00044916D3031F5EE81FF81868181111BC0F9
:101CF00081E090E027960FB6F894DEBF0FBECDBF0F
:101D0000DF91CF911F910F91FF90EF90DF90CF90D7
:101D1000BF90AF909F908F907F906F905F904F900B
:101D20003F902F90089560E08E819F810E94D00D9A
:101D3000DFCF6A3009F067C0AE81BF8116968C9103
:101D40001697882321F060E0CD010E94D00DEE812E
:101D5000FF8101890E9DE02C112465816E0D848523
:101D6000882349F027812695269526958E2D821B5E
:101D7000860F18162CF08E819F810E94E60DB8CF39
:101D8000AE81BF811B969C911B97890F87701B9614
:101D90008C931B972E1915962C9315971E96ED91E3
:101DA000FC91309771F13396E491F0E0379633E08F
:101DB000F595E7953A95E1F70E9F002D1124EFEF89
:101DC000E20F0E0FEE81FF81468141506481CF0109
:101DD0000E94070EAE81BF811C968C911C978130AA
:101DE00009F086CF1B966C911B97660F660F660FE6
:101DF0006F731A966C931A976064CD010E94C80D98
:101E000077CF00E0DCCF631760F1A32FA40FBB27CF
:101E1000BB1F6A171B062CF5631B212C8C010A5F64
:101E20001F4FEE81FF8151853189539F302D112441
:101E30003D83211014C0FC0134910196FC01849172
:101E4000932F0297A0F45E9C90015F9C300D1124AB
:101E5000629FC001639F900D1124080F191F612C10
:101E600028C0603209F0A7C022242394D7CF27705E
:101E700088E0682E621A211101C0612CF80120E06F
:101E800090E080E0621731F03491830F911D2F5F55
:101E90003196F8CFF801E60FF11D5490E89EF0015D
:101EA000E99EF00DF89EF00D1124E40FF11D0E0FC8
:101EB0001F1FAE81BF811496BC91BA83EE81FF8152
:101EC000F581FB83AE81BF811D96BC91BC83852CBF
:101ED000912CAA24A394B12C312CE9813E1608F050
:101EE00068C0412CAE81BF8151968C9151974816A4
:101EF00008F058C0EC811D96EC93311002C04420CC
:101F000051F0AE81BF8115964C9115974F5F6A8154
:101F1000CD010E94F50DD12CC12CC514B0F5712C4A
:101F2000211004C0F801EC0DFD1D7490662061F0D5
:101F3000EA14FB0449F4E72DF0E0062C02C0F59505
:101F4000E7950A94E2F77E2EEE81FF818189823047
:101F500079F44420B1F072948FE07822E72DF0E01C
:101F6000ED55F64F7490672D8E819F810E942E084B
:101F7000672D8E819F810E942E083FEFC31AD30ADE
:101F8000CCCFF72DFF707F2EE9CFD12C8D81D816C5
:101F900039F060E08E819F810E942E08D394F6CFA5
:101FA0004394A0CF3394AFEFAA1ABA0A080D191DB3
:101FB00094CF6B81E0CE90E080E09CCE0F931F9396
:101FC000CF93DF938C01D0E0C0E0F801EC0FFD1F50
:101FD0006491662341F08BE692E00E943C0E892BCF
:101FE00011F02196F2CFCE01DF91CF911F910F9189
:101FF0000895682F8BE692E00C943C0ECF93DF930C
:10200000EC0145E060E08BE692E00E94F50DCE0128
:10201000DF91CF910C94DE0FEF92FF920F931F93FD
:10202000CF93DF9320911D0230E0F901EF5AF34F77
:1020300054912B59374FF90124913091930190918C
:102040009201931B10919401111163C011E0911141
:1020500001C010E0D1E0321708F0D0E0C09160017B
:10206000311101C031E09F5F111101C090E0CD0F2F
:10207000C30FC90F482F60E08BE692E00E94F50D78
:1020800000E084E190E07C01EC1AF1080E151F04D9
:102090002CF480E20E94F90F0F5FF8CF809160016D
:1020A000882319F08DE20E94F90F80919301C0E01E
:1020B000811117C080E30E94F90F1123F9F08EE21D
:1020C0000E94F90FC091930180919201C817B0F45A
:1020D000EC2FF0E0EF59FE4F80810E94F90FCF5FA7
:1020E000F3CF80919301C81740F7EC2FF0E0EF5940
:1020F000FE4F80810E94F90FCF5FF3CFDD2371F097
:102100008FE5DF91CF911F910F91FF90EF900C948D
:10211000F90FD1E0951708F4A1CF9FCFDF91CF91B0
:102120001F910F91FF90EF90089542E060E08BE6E1
:1021300092E00E94F50DE0918E01F0E0EE0FFF1F9E
:10214000E75EF74F859194910C94DE0FAF92BF92AA
:10215000CF92DF92EF92FF920F931F93CF93DF9373
:10216000C62F482F60E08BE692E00E94F50D8C2F81
:1021700090E0880F991FF12CE12C9C012057384FDB
:1021800069018C010F56184FC131B8F08AE797E00A
:102190000E94DE0FCF5F32E0E30EF11C8AE0E8160A
:1021A000F10491F7DF91CF911F910F91FF90EF9084
:1021B000DF90CF90BF90AF900895F601EE0DFF1D18
:1021C000B490F801EE0DFF1DD491A0908E0180E235
:1021D000AC1201C08BE50E94F90F8B2D0E94F90F04
:1021E0008D2F0E94F90F8DE5AC1280E20E94F90F4D
:1021F000D1CF0E94951060E083E00E94A61065E0B8
:1022000084E00E94A6106AE085E00E94A6106FE0BC
:1022100086E00C94A610FF920F931F93CF93DF9349
:102220008B01EA01F22E482F60E08BE692E00E94DB
:10223000F50D80E2F1108EE30E94F90F80E20E941A
:10224000F90FC8010E94DE0F8EE596E00E94DE0FB6
:10225000CE010E94DE0F8DE5DF91CF911F910F918E
:10226000FF900C94F90F262F823009F438C050F4F7
:102270008823D1F0813031F14CE856E061E976E015
:102280008F5F1EC0833009F437C08430A9F7E09116
:102290000902F0E0EE0FFF1FE955F94F4591549107
:1022A0006CE976E085E00CC0E0910001F0E0EE0F13
:1022B000FF1FE151F94F4591549164EE76E081E0C2
:1022C0000C940B11E0910402F0E0EE0FFF1FE452BA
:1022D000F94F4591549161ED76E082E0F1CFE091C4
:1022E0000101F0E0EE0FFF1FE553F94F45915491C6
:1022F00060EC76E083E0E4CFE0911D02F0E0EE0FC9
:10230000FF1FE854F94F459154916DEA76E084E05F
:10231000D7CF45E060E08BE692E00E94F50DE091BA
:102320000A0288E0E89FF0011124EB54F44F8591F4
:1023300094910C94DE0F482F60E08BE692E00E94AF
:10234000F50D85EA95E00C94DE0F0F93CF93DF93A4
:10235000EC011B861A8660E40E94C80D0F81069569
:102360000695069501504E81415020E060E0CE0177
:102370000E94070EDF91CF910F9108958BE692E0B6
:102380000E94A51140E060E08BE692E00E94F50D0E
:1023900087E796E00E94DE0FE0910001F0E0EE0F8B
:1023A000FF1FE151F94F4591549121E080914C017B
:1023B000811120E064EE76E081E00E940B11E09153
:1023C0000402F0E0EE0FFF1FE452F94F45915491E3
:1023D00021E080914C01813009F020E061ED76E050
:1023E00082E00E940B11E0910101F0E0EE0FFF1F6F
:1023F000E553F94F4591549121E080914C01823091
:1024000009F020E060EC76E083E00E940B11E0919F
:102410001D02F0E0EE0FFF1FE854F94F4591549173
:1024200021E080914C01833009F020E06DEA76E0F4
:1024300084E00E940B11E0910902F0E0EE0FFF1F13
:10244000E955F94F4591549121E080914C01843038
:1024500009F020E06CE976E085E00E940B1121E0B4
:1024600080914C01853009F020E04CE856E061E9AC
:1024700076E086E00E940B1147E060E08BE692E098
:102480000E94F50D82E696E00C94DE0F0C94BE11CE
:10249000CF93DF93EC018BE692E00E94A51140E020
:1024A00060E08BE692E00E94F50D8FEC95E00E94D3
:1024B000DE0F42E060E08BE692E00E94F50DCE0177
:1024C0000E94DE0F47E060E08BE692E00E94F50D8F
:1024D0008AEB95E0DF91CF910C94DE0F909303028D
:1024E0008093020221E020930B020E9448120E9476
:1024F000F5077093120260931102089510920B0277
:1025000010920302109202028BE692E00E94A51143
:1025100040E060E08BE692E00E94F50D81E995E0F5
:102520000E94DE0F42E060E08BE692E00E94F50D33
:1025300082E895E00E94DE0F0E942E0D81111FC0DF
:102540000E94F507709312026093110268EE73E027
:1025500080E090E00E94C30740E060E08BE692E0FC
:102560000E94F50D83E795E00E94DE0F42E060E0F7
:102570008BE692E00E94F50D87E595E0DBCF8BE6D8
:1025800092E00C94A5110E942E0D811102C00C94B2
:102590007E1208950F931F93CF938C01C62F0E9434
:1025A000C312E2E2F2E081E0878B80E5828B158A3C
:1025B000168AC8010E94410D6C2F82E292E00E94AF
:1025C000970982E292E0CF911F910F910C94C80974
:1025D000CF92DF92EF92FF920F93CF93DF93CDB71D
:1025E000DEB728970FB6F894DEBF0FBECDBF20919F
:1025F0007501309176014091770150917801609199
:10260000790170917A0180917B0190917C01DE01CA
:1026100011967D01FE0139966D01D6012D936D0154
:1026200008E00E94273DAE17BF07B9F70E94C3120A
:1026300081E08093390280E5809334021092370262
:102640001092380281E190E00E94410DF701619102
:102650007F0182E292E00E949709CE14DF04B1F775
:1026600082E292E00E94C8096AEA80E190E00E945A
:10267000CA1281E080935F0128960FB6F894DEBFFE
:102680000FBECDBFDF91CF910F91FF90EF90DF9004
:10269000CF9008956091000190E080E00E94CA12FE
:1026A0006091040281E090E00E94CA1260910101F1
:1026B00082E090E00E94CA1260911D0283E090E0E7
:1026C0000E94CA126091090284E090E00C94CA1240
:1026D000CF939091130280FB97F990931302C1E07E
:1026E000811106C0E0910001F0E0E056FA4FC4917C
:1026F00061E88BE692E00E94C80D6C2F8BE692E0B9
:10270000CF910C94C80D0E94F50760930502709359
:10271000060280930702909308028091130287FFBC
:1027200003C080E00C9468130895CF93E0910001FA
:10273000F0E0E056FA4FC49161E88BE692E00E9427
:10274000C80D6C2F8BE692E0CF910C94C80D0895C4
:1027500090E080E0089520912E0230912F028217A0
:10276000130611F00CF0822F60913002709131024B
:10277000E0914602F091470221E0482F80E509955B
:1027800010923202809333020895CF93DF93EC01CD
:102790000E94C31281E08093390280E58093340265
:1027A0001092370210923802CE010E94410D82E24F
:1027B00092E00E94C80981E00E94AB13909133021D
:1027C00080913202981739F082E292E00E944F091C
:1027D000DF91CF91089580E0FBCF4F925F927F927F
:1027E0008F929F92AF92BF92CF92DF92EF92FF9221
:1027F0000F931F93CF93DF93CDB7DEB728970FB614
:10280000F894DEBF0FBECDBF7C0180E190E00E9456
:10281000C5138A3A09F07DC0CE0101966C0188E0AB
:10282000F60111928A95E9F70E94C31281E0809324
:10283000390280E5809334021092370210923802F8
:1028400081E190E00E94410D82E292E00E94C8097D
:1028500088E00E94AB134E01F9E08F0E911C5601E7
:102860009091330280913202981709F450C082E2AD
:1028700092E00E944F09F50181935F01E815F90587
:1028800079F7512C412C712C812C912CA12CB12C3D
:1028900010E0B0E0A0E0F60121916F0130E040E0EF
:1028A00050E060E070E080E090E0042D0E940C3D7C
:1028B000722A832A942AA52AB62A172BB82BA92B69
:1028C000F8E04F0E511C80E44816510421F7F7013F
:1028D000708281829282A382B4821583B683A78399
:1028E00081E028960FB6F894DEBF0FBECDBFDF9112
:1028F000CF911F910F91FF90EF90DF90CF90BF90FD
:10290000AF909F908F907F905F904F90089580E060
:10291000B2CF80E0E6CF5F926F927F928F929F92CC
:10292000AF92BF92CF92DF92EF92FF920F931F93DD
:10293000CF93DF93DC011496ED91FC911597EF2B6B
:1029400009F46CC069013A01EC01E981FA818881DE
:1029500091E0978B828B158A168ACD010E9486069C
:10296000582E882309F45AC0F12CE12C8C819D81CA
:1029700086010E191F098017910708F48C01A980A0
:10298000BA8021E0C601801B910BE816F90608F415
:1029900020E08881F50144855585401751070CF0EA
:1029A000402FD5011E966D917C911F979496ED91C5
:1029B000FC910995F501108A818B8017110671F53C
:1029C00043018E0C9F1C5401C50188199909801779
:1029D000910768F489819A81DC01ED91FC91028470
:1029E000F385E02D0995F50181935F01EDCFE00EB0
:1029F000F11EEC14FD0408F4B9CF852DDF91CF91C1
:102A00001F910F91FF90EF90DF90CF90BF90AF900C
:102A10009F908F907F906F905F900895512CEDCF95
:102A2000CF93DF9300D01F92CDB7DEB78B8322E028
:102A300030E0AE014F5F5F4FBE016D5F7F4F809111
:102A40005202909153020E948B1489819A81982797
:102A5000892798270F900F900F90DF91CF910895BD
:102A60000F931F93CF93DF9300D0CDB7DEB78EE2E5
:102A70008A8384EF89830091520210915302F801F6
:102A800084819581029728F1A181B281808191E0B2
:102A900057969C93579752968C93529755961C92A3
:102AA000559756961C925697ED91FC91119702807E
:102AB000F381E02D41E050E0BE016F5F7F4FCD011B
:102AC0000995019731F4BE016E5F7F4FC8010E94E6
:102AD000860665E070E080E090E00E94C30786EF24
:102AE0000E9410150F900F90DF91CF911F910F91C1
:102AF0000895CF92DF92EF92FF920E9430159C01D1
:102B000050E040E0E2E5F2E08789908D281B390B28
:102B100041095109A589B6890E94013C6B017C01DC
:102B20008FE0F594E794D794C7948A95D1F7678599
:102B30007089072E000C880B990B2BE0660F771F0E
:102B4000881F991F2A95D1F721893289032E000CFD
:102B5000440B550B2C0D3D1D4E1D5F1D0E94C63BA9
:102B6000CA01B9016C0D7D1D8E1D9F1D685F7F4FD1
:102B70008F4F9F4F34E095958795779567953A9558
:102B8000D1F70E946D3720E030E040E251E40E942E
:102B90008136FF90EF90DF90CF9008954F925F9233
:102BA0006F927F928F929F92AF92BF92CF92DF925D
:102BB000EF92FF921F93CF93DF93CDB7DEB72897A5
:102BC0000FB6F894DEBF0FBECDBF0E9430154C018A
:102BD000B12CA12C809154028295880F880F807CA3
:102BE0008C5C8C8384EF8B83E0905202F0905302D4
:102BF000D70114968D919C911597029740F11196EB
:102C00000D90BC91A02DF701808191E057969C9387
:102C1000579752968C93529755961C925597569665
:102C20001C925697ED91FC9111970280F381E02D53
:102C300041E050E0BE016D5F7F4FCD0109950197E6
:102C400031F4BE016C5F7F4FC7010E948606809100
:102C5000540281117DC165E070E080E090E00E9447
:102C6000C30786EF0E941015B0E0A0E0CC24D82E58
:102C7000E92EFA2E88EF8A8321E030E0AE014F5F23
:102C80005F4FBE016E5F7F4F809152029091530261
:102C90000E948B148981C82A109154028091690284
:102CA00090916A02A5019401281B390B4109510931
:102CB000A0916702B09168020E94013C2B013C0187
:102CC000AFE07594679457944794AA95D1F76091B3
:102CD000610270916202072E000C880B990BBBE019
:102CE000660F771F881F991FBA95D1F7209163024D
:102CF00030916402032E000C440B550B240D351D3E
:102D0000461D571D0E94C63B420E531E641E751E73
:102D1000F0EA4F1AFFE05F0A61087108A30192010F
:102D2000C301B2010E94603B4B015C018CE0B59491
:102D3000A794979487948A95D1F7A0915902B0915E
:102D40005A020E940C3C9B01AC019DE055954795B1
:102D5000379527959A95D1F72D833E834F835887D2
:102D6000A0915B02B0915C02A50194010E940C3C11
:102D70009C01552737FD5095452F8D819E81AF8150
:102D8000B885280F391F4A1F5B1F2E5F3F4F4F4FDB
:102D90005F4F62E055954795379527956A95D1F72E
:102DA00030584F4F5F4FA0916502B09166020E946C
:102DB000013C9B01AC017FE05695479537952795DF
:102DC0007A95D1F72D833E834F83588788E090E032
:102DD000811B910904C0F694E794D794C7948A950F
:102DE000D2F7A0915D02B0915E02A50194010E940C
:102DF0000C3C4B015C01EBE0B594A794979487944D
:102E0000EA95D1F7A0915702B0915802A30192011F
:102E10000E940C3CFBE09595879577956795FA9510
:102E2000D1F7680D791D8A1D9B1D809055029090E9
:102E30005602092C000CAA08BB08A2E0880C991CB9
:102E4000AA1CBB1CAA95D1F7680D791D8A1D9B1D74
:102E5000012E04C0660F771F881F991F0A94D2F7AE
:102E60006E5F7F4F8F4F9F4F24E030E040E050E097
:102E70000E94C63BD701C601821B930BA40BB50B66
:102E80009C01AD0160E573EC80E090E004C0969594
:102E90008795779567951A95D2F70E94603B97FDC5
:102EA0006AC0660F771F881F991F2D813E814F8151
:102EB00058850E94A43B69017A019927F7FC9A95ED
:102EC0008F2D7E2D6D2D9B01AC010E94603B9B01DF
:102ED000AC01AEEDBBE00E94013C4B015C01A3E400
:102EE000B3EEA70196010E940F3CBC01992777FD24
:102EF0009095892F4501BB2497FCB094AB2C680DAD
:102F0000791D8A1D9B1D6153714F8F4F9F4F44E068
:102F100095958795779567954A95D1F76C0D7D1DA9
:102F20008E1D9F1D28960FB6F894DEBF0FBECDBF35
:102F3000DF91CF911F91FF90EF90DF90CF90BF90E6
:102F4000AF909F908F907F906F905F904F9008957B
:102F5000813029F468E070E080E090E080CE82303B
:102F600029F46EE070E080E090E079CE6AE170E0F4
:102F700080E090E074CE2D813E814F8158850E9483
:102F8000A43B69017A01CC0CDD1CEE1CFF1C95CF23
:102F9000FC0101900020E9F73197AF01481B590B64
:102FA000BC018BE692E00C9401088F929F92AF9245
:102FB000BF920F931F93CF93DF93CDB7DEB7A19747
:102FC0000FB6F894DEBF0FBECDBF19A2423008F491
:102FD0004AE08E010F5D1F4F842E912CB12CA12C45
:102FE000A50194010E94A43BE62FB901CA01EA3071
:102FF000F4F4E05DD801EE938D01232B242B252BD7
:1030000079F790E080E0109719F0CD010E94C81781
:10301000A1960FB6F894DEBF0FBECDBFDF91CF9162
:103020001F910F91BF90AF909F908F900895E95C92
:10303000E1CF682F70E090E080E04AE00C94D51773
:10304000CF93E0911D02F0E0EF5AF34FC49140E0BE
:1030500060E08BE692E00E94F50D83E897E00E9425
:10306000DE0FCA3018F480E20E94F90F8C2F0E9404
:1030700019188FE797E00E94DE0F0E94B80C882392
:1030800091F080919401882371F084E40E94F90FFB
:103090008DE50E94F90F80915F01811106C080E2E9
:1030A000CF910C94F90F89E4F1CF83E5F9CFCF925A
:1030B000DF92EF92FF92CF93DF936C01990FEE08AE
:1030C000FF08F7FE17C08DE20E94F90FEC0166279A
:1030D0007727CB016C197D098E099F094AE00E9470
:1030E000D5178C0F9D1FDF91CF91FF90EF90DF9050
:1030F000CF9008954AE0C701B601DF91CF91FF90CC
:10310000EF90DF90CF900C94D5172F923F924F9273
:103110005F926F927F928F929F92AF92BF92CF9267
:10312000DF92EF92FF920F931F93CF93DF93CDB770
:10313000DEB76A970FB6F894DEBF0FBECDBF8A8F99
:10314000180129013A014B0194E6A92EB12CC12C9A
:10315000D12CE12CF12C00E010E09101A201B3018F
:10316000C4010E949F3CEAE0AE2E0E949D3C2F8B42
:10317000F8EEAF2EA3E0BA2E9101A201B301C40173
:103180000E949F3CBCE3AB2EB12C0E949D3C288F3B
:1031900080E6A82E9AEEB92E9101A201B301C401D6
:1031A0000E949F3CECE3AE2EB12C0E949D3C298FE7
:1031B000F0E8AF2EAEEEBA2EB6E3CB2E9101A2010F
:1031C000B301C4010E949F3C822F2A303105410582
:1031D000510508F084C090E39983805D8A83E2E022
:1031E000A1E0B0E0AC0FBD1FAE0FB11D3AE33C93C0
:1031F000A1E0AE0F41E050E04C0F5D1F4A0F511DA2
:10320000DA012AE0898D622F0E94703B805D8C93E9
:10321000A2E0AE0F41E050E04C0F5D1F4A0F511D80
:10322000DA01905D9C93A3E0AE0F81E090E08C0FFB
:103230009D1F8A0F911DDC013C93A4E0AE0F41E07D
:1032400050E04C0F5D1F4A0F511DDA01888D0E941E
:10325000703B805D8C93A5E0AE0F21E030E02C0F39
:103260003D1F2A0F311DD901905D9C93A6E0AE0F42
:1032700041E050E04C0F5D1F4A0F511DDA018EE214
:103280008C9318E01E0FE95F81E090E08C0F9D1F8A
:103290008E0F911DFC018F89805D8083212F30E08E
:1032A000E1E0F0E0EC0FFD1FE20FF31F108284E17C
:1032B00090E0821B930B97FD01964C0195948794A7
:1032C000682C4A8D60E08BE692E00E94F50D712C2F
:1032D000761460F480E20E94F90F7394F9CF60E0F5
:1032E000CE0101960E94BF0CE82F7ACFCE01019645
:1032F0000E94C817180D143128F480E20E94F90FBB
:103300001F5FF9CF6A960FB6F894DEBF0FBECDBF30
:10331000DF91CF911F910F91FF90EF90DF90CF90B1
:10332000BF90AF909F908F907F906F905F904F90E5
:103330003F902F900895CF92DF92EF92FF920F93DC
:103340001F938091AE01882341F10E94F5070091FF
:10335000AA011091AB012091AC013091AD016B013C
:103360007C01C01AD10AE20AF30A970186010436E9
:1033700011052105310588F06093AA017093AB0116
:103380008093AC019093AD010E94140A89019A01C7
:10339000AB01BC0181E00E9485181F910F91FF9045
:1033A000EF90DF90CF9008950F931F938BE692E0FC
:1033B0000E94A51140E060E08BE692E00E94F50DCE
:1033C00084E699E00E94DE0F0E94140A89019A01A6
:1033D000AB01BC0181E00E94851842E060E08BE611
:1033E00092E00E94F50D8FE499E00E94DE0F80913B
:1033F00099018823B9F100919A0110919B012091C4
:103400009C0130919D0140919E0150919F016091DE
:10341000A0017091A10183E00E94851844E060E062
:103420008BE692E00E94F50D85E299E00E94DE0FA6
:1034300045E060E08BE692E00E94F50D8091AE01E0
:1034400081111BC086EE98E00E94DE0F46E060E02E
:103450008BE692E00E94F50D80E199E01F910F91BB
:103460000C94DE0F43E060E08BE692E00E94F50DE5
:103470008AE399E00E94DE0FD1CF8BEF98E0E4CF92
:103480008091AE01811126C02091A2013091A3014B
:103490004091A4015091A5016091A6017091A701EE
:1034A0008091A8019091A901A0E00E94693D91F44A
:1034B00010929A0110929B0110929C0110929D0112
:1034C00010929E0110929F011092A0011092A101F2
:1034D000109299010C94D4190F931F93CF93DF93FB
:1034E000CDB7DEB729970FB6F894DEBF0FBECDBFBC
:1034F0000E94B80C0FE0811106C08091910103E099
:10350000813009F401E110918E018FEF111145C056
:10351000800FBE016F5F7F4F0E945F0ABE016C5F2C
:103520007F4F812F0E945F0A812F90E00196602FCC
:1035300070E00E94903BBE01695F7F4F0E945F0A6E
:1035400046E060E08BE692E00E94F50D80EC97E0AB
:103550000E94DE0FCE0101960E94C8178CEB97E007
:103560000E94DE0FCE0104960E94C81788EB97E0F8
:103570000E94DE0FCE0107960E94C81783EB97E0EA
:103580000E94DE0F29960FB6F894DEBF0FBECDBFA6
:10359000DF91CF911F910F910895810FBACF2F9294
:1035A0003F924F925F926F927F928F929F92AF92D3
:1035B000BF92CF92DF92EF92FF920F931F93CF9320
:1035C000DF93CDB7DEB762970FB6F894DEBF0FBEBC
:1035D000CDBF00E09CE3492E512C612C712C2AE0D8
:1035E000222E312C10915A01100F1A8B0F5F1F30B1
:1035F000F0F0802F0E949B110630A1F762960FB663
:10360000F894DEBF0FBECDBFDF91CF911F910F9118
:10361000FF90EF90DF90CF90BF90AF909F908F90F2
:103620007F906F905F904F903F902F900895EA8920
:10363000E150EE3008F046C0F0E0EF5DF44E0C943F
:10364000E53BEB1B371C401B981CA61C0E1D731D75
:103650009B1DBC1DD41DE51D111E2F1B511BE2E03F
:10366000F7E010E08491A1E0B0E0AC0FBD1FA10F26
:10367000B11D3196882309F4DAC01F5F8C93F2CF15
:10368000EEE0F7E010E08491A1E0B0E0AC0FBD1FE8
:10369000A10FB11D3196882309F4C9C01F5F8C9317
:1036A000F2CFE9EFF6E010E08491A1E0B0E0AC0FDA
:1036B000BD1FA10FB11D3196882309F4B8C01F5F4B
:1036C0008C93F2CF0E94F5076B017C0120E83EEE5F
:1036D00046E350E00E94A43B49015A01C701B601EC
:1036E00020E63AEE40E050E00E94A43BCA01B90156
:1036F000A30192010E94A43B162FC701B60128EE38
:1037000033E040E050E00E94A43BCA01B901A301AC
:1037100092010E94A43BC62E24E68216910408F072
:1037200051C0882D6AE00E94703B805D8983905D66
:103730009A83E2E0A1E0B0E0AC0FBD1FAE0FB11D77
:103740003AE33C93A1E0AE0F41E050E04C0F5D1F27
:103750004A0F511DDA01812F6AE00E94703B805DA3
:103760008C93A2E0AE0F21E030E02C0F3D1F2A0F1A
:10377000311DD901905D9C93A3E0AE0F41E050E074
:103780004C0F5D1F4A0F511DDA015AE35C93A4E010
:10379000AE0F81E090E08C0F9D1F8A0F911DDC0120
:1037A0008C2D0E94703B805D8C9316E01E0FEB5FAA
:1037B000A1E0B0E0AC0FBD1FAE0FB11DFD01905DEB
:1037C000908335C0A501940160E0CE0101960E946E
:1037D000BF0CE82FAFCF209157013091580137FF30
:1037E0000AC08FE4898386E58A8386E48B8381E23D
:1037F0008C8314E01CC0032E000C440B550B60E0BE
:10380000CE0101960E94BF0CE1E0F0E0EC0FFD1F3D
:10381000E80FF11D90E2908312E0180F8F5FE1E056
:10382000F0E0EC0FFD1FE80FF11D82E48083E1E082
:10383000F0E0EC0FFD1FE10FF11D1082402F60E062
:103840008BE692E00E94F50D3A89E32FF0E0EE0F4F
:10385000FF1FE65EF84F859194910E94DE0F1B30AA
:1038600008F0F1C180E20E94F90F1F5FF8CF80914C
:1038700055019091560168EE73E00E947C3B6C010B
:103880009B0150E040E060E0CE0101960E94BF0C39
:10389000E82FA1E0B0E0AC0FBD1FA80FB11D8EE274
:1038A0008C9321E02E0F41E050E04C0F5D1F420F42
:1038B000511D9A01C60164E670E00E947C3B605D88
:1038C000D9016C9322E02E0F41E050E04C0F5D1FB8
:1038D000420F511D9A01B1010E947C3B605DD901EC
:1038E0006C9323E02E0F41E050E04C0F5D1F420F20
:1038F000511D9A01C601B1010E947C3B805DD90136
:103900008C93A4E0AE0F21E030E02C0F3D1F2A0F76
:10391000311DD90180E28C9316E01E0FEB5F41E070
:1039200050E04C0F5D1F4E0F511DFA0186E57ECF12
:1039300081E3898386E38A8380E28B838DE48C83B1
:1039400088E48D838AE78E8316E071CFA0915301BE
:10395000B091540180911302182F147082FF0DC092
:1039600029E030E00E94FA3B25E030E040E050E002
:103970000E94C63BD901A05CBE4FE0E0B7FF06C085
:10398000B195A195B1098DE28983E1E0CD01B10145
:103990000E94903BC82E9B01770F440B550B6E2F56
:1039A000CE0101960E94BF0CE1E0F0E0EC0FFD1F9C
:1039B000E80FF11D9EE29083E1E0E80FA1E0B0E0A6
:1039C000AC0FBD1FAE0FB11DFD0190E39C0D9083A8
:1039D000E2E0E80F21E030E02C0F3D1F2E0F311DFB
:1039E000F90190E29083E4E0E80FA3E0A80F41E042
:1039F00050E04C0F5D1F4A0F511DDA0197E29C9376
:103A000096E4111101C093E415E0180FA1E0B0E0B5
:103A1000AC0FBD1FAE0FB11DFD01D2CE60914F01A5
:103A200070915001809151019091520124E630E053
:103A300040E050E00E94C63B4B015C01032E000CAD
:103A4000440B550B60E0CE0101960E94BF0CF82E8E
:103A5000E1E0F0E0EC0FFD1FE80FF11D8EE2808346
:103A6000CC24C394CF0CE1E0F0E0EC0FFD1FEC0D93
:103A7000F11D6F01C501B4012AE030E040E050E0E3
:103A80000E94C63B205DD6012C93E2E0EF0D21E0C1
:103A900030E02C0F3D1F2E0F311DF90180E2808395
:103AA000E3E0EF0D41E050E04C0F5D1F4E0F511D64
:103AB000FA0188E68083E4E0EF0D81E090E08C0F6E
:103AC0009D1F8E0F911DFC0180E5808316E01F0D68
:103AD000E5E0EF0DA1E0B0E0AC0FBD1FAE0FB11DF2
:103AE000FD0181E6A3CE20914D0130914E0160E0B1
:103AF00037FF06C08DE2898331952195310961E058
:103B0000032E000C440B550BCE0101960E94BF0CF6
:103B1000E1E0F0E0EC0FFD1FE80FF11D90E2908373
:103B200012E0180F8F5FE1E0F0E0EC0FFD1FE80FEF
:103B3000F11D8DE67BCE85E0E9E0F1E0DE011D962A
:103B400001900D928A95E1F7E0910001EC0FFD2FB5
:103B5000F11D258530E050E040E060E0CE010196A7
:103B60000E94BF0C11E0180FE1E0F0E0EC0FFD1F28
:103B7000E80FF11D85E25ACEE0910402F0E0E85230
:103B8000F44F249130E050E040E060E0CE01019637
:103B90000E94BF0C11E0180FE1E0F0E0EC0FFD1FF8
:103BA000E80FF11D83E742CEE0910101F0E0EB5216
:103BB000F44F249130E050E040E060E0CE01019607
:103BC0000E94BF0C11E0180FAECFE0911D02F0E093
:103BD000EF5AF34F249130E050E040E060E0CE0136
:103BE00001960E94BF0CE1E0F0E0EC0FFD1FE80F32
:103BF000F11D90E29083E1E0E80F21E030E02C0F2E
:103C00003D1F2E0F311DF90194E4908313E0180F2E
:103C10008E5FE1E0F0E0EC0FFD1FE80FF11D80E5A5
:103C200005CE80915901882331F08FE489838BE49C
:103C30008A8312E0FCCD86E4898381E48A8389E467
:103C40008B838CE4D5CDCE0101960E94C817D4CCCD
:103C50001F93CF93DF938BE692E00E94A511C09152
:103C60005A0111E01C0FCA5FDC2FC03108F0DFE001
:103C700040E060E08BE692E00E94F50D8DE497E075
:103C80000E94DE0F1A3018F480E30E94F90F812F92
:103C90000E9419188DE20E94F90FCA3018F480E3CF
:103CA0000E94F90F8D2F0E9419188FE20E94F90FC0
:103CB0008FE090E00E9457180E94CF1A47E060E022
:103CC0008BE692E00E94F50D88E397E0DF91CF91BB
:103CD0001F910C94DE0F8F929F92AF92BF92CF9262
:103CE000DF92EF92FF920F931F93CF93DF9341E008
:103CF00060E08BE692E00E94F50D8091FB01882345
:103D000009F49AC00E94791520E030E040E251E4C5
:103D10000E946A390E942F37EB012091130222FF83
:103D20000EC0DB0129E030E00E94FA3B25E030E0E4
:103D300040E050E00E94C63BE901C05CDE4F0E94BB
:103D4000CE1524E630E040E050E00E94C63B490139
:103D500079012AE030E040E050E00E94C63BD22EDC
:103D6000CD2ECC1CCC24CC1CCE01D7FF03C091950A
:103D7000819591096AE070E00E94903B8B01D82FF9
:103D800085E0643671052CF483E06A30710508F033
:103D900084E0C5E0CC19C81BCC2329F080E20E9446
:103DA000F90FC150F9CFCC2019F08DE20E94F90F24
:103DB000B801110F880B990B4AE00E94D5178EE2CB
:103DC0000E94F90F8D2F0E9419188091130282FD15
:103DD00030C089EE95E00E94DE0F88EEE81683E0A1
:103DE000F80654F480E20E94F90F84E6E816F10424
:103DF0001CF480E20E94F90FC4010E9457188EE261
:103E00000E94F90F8D2D0E94191884EE95E00E94F2
:103E1000DE0F8EE291E0DF91CF911F910F91FF9025
:103E2000EF90DF90CF90BF90AF909F908F900C94C9
:103E3000C8178FEE95E0CFCFDF91CF911F910F91F3
:103E4000FF90EF90DF90CF90BF90AF909F908F90BA
:103E500008958BE692E00E94A51140E060E08BE6B9
:103E600092E00E94F50D89E496E00E94DE0F42E0A8
:103E700060E08BE692E00E94F50D84E396E00E94FC
:103E8000DE0F43E060E08BE692E00E94F50D8FE1EB
:103E900096E00E94DE0F44E060E08BE692E00E9434
:103EA000F50D8AE096E00E94DE0F0E94891146E03F
:103EB00060E08BE692E00E94F50D85EF95E00E94B0
:103EC000DE0F47E060E08BE692E00E94F50D81E3B3
:103ED00091E00E94C8170C946B1E8FEF8093020133
:103EE0000E94291F0E94F50770931202609311022D
:103EF0000895AF92BF92CF92DF92EF92FF920F930D
:103F00001F93CF93DF93882309F476C08091AE018D
:103F1000882309F460C00E94F50700919501109173
:103F200096012091970130919801DC01CB01801B13
:103F3000910BA20BB30B9C01AD0160E070E080E03F
:103F400090E0A090A201B090A301C090A401D090F5
:103F5000A501E090A601F090A7010091A8011091A1
:103F6000A9010E94423D2093A2013093A3014093F6
:103F7000A4015093A5016093A6017093A7018093BB
:103F8000A8019093A9011092AE0145E060E08BE694
:103F900092E00E94F50D8091AE0181112AC089E75F
:103FA00099E00E94DE0F8091AE01811109C00E944C
:103FB000140A89019A01AB01BC0181E00E948518B5
:103FC000DF91CF911F910F91FF90EF90DF90CF90F5
:103FD000BF90AF9008950E94F5076093950170938C
:103FE0009601809397019093980181E08093AE01B0
:103FF000CCCF8EE899E0D5CF662381F11092A20153
:104000001092A3011092A4011092A5011092A60192
:104010001092A7011092A8011092A90110929A0182
:1040200010929B0110929C0110929D0110929E0192
:1040300010929F011092A0011092A101109299017B
:104040001092AE01DF91CF911F910F91FF90EF90F1
:10405000DF90CF90BF90AF900C94D4194423D9F047
:104060000E94140A20939A0130939B0140939C0173
:1040700050939D0160939E0170939F018093A001D6
:104080009093A101E1E0E093990189019A01AB01CC
:10409000BC0183E093CF222309F492CFDF91CF912B
:1040A0001F910F91FF90EF90DF90CF90BF90AF9056
:1040B0000C946D1F1F93CF93DF93D62F142FC22F15
:1040C000882389F080914C01882309F480C09FEFF8
:1040D000980F90934C0160E00E94331161E0809151
:1040E0004C010E943311DD2381F080914C01853019
:1040F00060F491E0980F90934C0160E00E943311BE
:1041000061E080914C010E943311112369F080918C
:104110004C018230D9F180F4882311F1813069F1AA
:104120000E944A130E94BE11CC2309F454C0DF91AF
:10413000CF911F910C946D1F8430F1F190F1853077
:1041400079F782E0809300011092040281E080936D
:10415000010110921D02109209020E944A13E0CF41
:104160008091000190E0019665E070E00E94903B34
:10417000809300010E949513D3CF8091040290E0B8
:1041800001968370992780930402CACF8091010120
:1041900090E0019663E070E00E94903B8093010103
:1041A000BFCF80911D0290E0019683709927809384
:1041B0001D020E94770CB4CF8091090290E0019615
:1041C00063E070E00E94903B80930902A9CF6623D0
:1041D00009F49BCF8ECFDF91CF911F9108950F935C
:1041E0001F93CF93DF9300D0CDB7DEB783E08093EA
:1041F00054028091520290915302009711F00E9454
:10420000E63486E090E00E944A348C0187E7F801AA
:10421000808382E292E092838183138280E290E045
:1042200095838483109353020093520210923202BA
:10423000109233021092370210923802E0913E023F
:10424000F0913F02099581E0F8018383C8010E9443
:10425000DC09182F811109C010E0812F0F900F90F9
:10426000DF91CF911F910F91089580ED8A8321E016
:1042700030E0AE014F5F5F4FBE016E5F7F4F8091B8
:104280005202909153020E948B148981853521F747
:104290008AEA0E94101590935602809355028CEA88
:1042A0000E94101590935802809357028EEA0E9444
:1042B000101590935A028093590280EB0E941015BA
:1042C000909366028093650282EB0E941015909392
:1042D00068028093670284EB0E94101590936A0233
:1042E0008093690286EB0E94101590935C02809384
:1042F0005B0288EB0E94101590935E0280935D0232
:104300008AEB0E9410159093600280935F028CEB01
:104310000E94101590936202809361028EEB0E94BE
:104320001015909364028093630297CF0E94753DAD
:10433000CF93DF9300D0CDB7DEB78091FB01811121
:1043400004C00E94EF208093FB018091FB0170E08C
:1043500060E0882351F00E94791520E030E040E2CF
:1043600051E40E946A390E942F3770935401609380
:1043700053018091FB01882309F46FC00E94CE1580
:1043800060934F01709350018093510190935201BB
:104390008091FB0170E060E0882301F10E94CE155E
:1043A0000E946D3720E836EE45EC57E40E948136D6
:1043B00021E03EED42E45EE30E94D7399B01AC016F
:1043C00060E070E080E89FE30E94C03520E03AE2C0
:1043D0004DE257E40E946A390E942F3770934E01D4
:1043E00060934D018EE480937C0062E070E080E099
:1043F00090E00E94C30780917A00806480937A00E5
:1044000080917A0086FDFCCF209178003091790070
:104410002115310531F150E040E064EB7BE281E1B0
:1044200090E00E94A43B3093560120935501809167
:10443000800290918102009711F484E892E09E013D
:104440002F5F3F4F281B390B3093580120935701A2
:104450000F900F90DF91CF91089560E070E0CB0155
:104460008FCF30E020E0DFCF0F931F930E94F5073E
:1044700000915B0110915C0120915D0130915E0122
:10448000601B710B820B930B603D7740810591059A
:1044900070F00E9498210E94CF1A0E94F507609345
:1044A0005B0170935C0180935D0190935E011F91AD
:1044B0000F9108951F93CF93DF93C62FD42F122F00
:1044C000882349F080915A01882339F181508093E3
:1044D0005A010E94281ECC2349F080915A0189304C
:1044E00028F48F5F80935A010E94281EDD2371F00B
:1044F0000E9498210E94CF1A0E94F50760935B01E9
:1045000070935C0180935D0190935E01112341F0F3
:10451000DF91CF911F910C946D1F662339F3E1CF8A
:10452000DF91CF911F91089510925A010E942E0D94
:1045300080935901811102C00E947E1281E0809314
:1045400059010E9498210E94281E0E94F50760933D
:104550005B0170935C0180935D0190935E0108950F
:10456000CF93DF93CDB7DEB728970FB6F894DEBFB1
:104570000FBECDBF60911D0288E0689FB00111247D
:10458000665A784F48E050E0CE0101960E946F35A0
:1045900029813A814B815C816D817E818F819885F3
:1045A00028960FB6F894DEBF0FBECDBFDF91CF9136
:1045B00008952F923F924F925F926F927F928F92C7
:1045C0009F92AF92BF92CF92DF92EF92FF920F93A2
:1045D0001F93CF93DF93CDB7DEB76A970FB6F894EA
:1045E000DEBF0FBECDBF8F8B202E322E432E542E1A
:1045F000588F698F7A8FE0911D02F0E0EF5AF34FE8
:1046000004910E94B022FE0131963F01FF93EF9387
:1046100049015A016B017C01222D312F432D542D6C
:10462000652D788D898D9A8D0E94AB0A082F4F8950
:1046300060E08BE692E00E94F50D0F900F9010E085
:10464000053160F0F30181913F010E94F90F1F5F76
:104650001331C1F78EE70E94F90F10C084E190E09A
:104660002C01401A5108141515042CF480E20E9404
:10467000F90F1F5FF8CFC3010E94C8176A960FB6E3
:10468000F894DEBF0FBECDBFDF91CF911F910F9188
:10469000FF90EF90DF90CF90BF90AF909F908F9062
:1046A0007F906F905F904F903F902F9008952F9242
:1046B0003F924F925F926F927F928F929F92AF92B2
:1046C000BF92CF92DF92EF92FF920F931F93CF93FF
:1046D000DF93CDB7DEB768970FB6F894DEBF0FBE95
:1046E000CDBF988F8F8B6E8780919201811108C00A
:1046F00080E38093610181E0809392018093930134
:104700000E94B0222F87388B498B5A8B6B8B7C8B06
:104710008D8B9E8B6090930131E6832E31E0932E3A
:10472000712C1D821E821F82188619861A861B868E
:104730001C866714A1F12AE0A22EB12CC12CD12C29
:10474000E12CF12C00E010E02D813E814F81588555
:1047500069857A858B859C850E94143C59016A0184
:104760007B018C01F40181914F01082E000C990B03
:10477000C097E92FEE0FEE0B9C014E2F5E2F6E2F90
:104780007E2F8E2F9E2F0E94423D2D833E834F838E
:10479000588769877A878B879C877394CACFF091F3
:1047A0009201FD87F719FC83872D90E09C012F591A
:1047B0003E4F3B832A83512C612C1982812C912CF2
:1047C000212C312C412C3D85731670F180911D02F6
:1047D00090E0FC01EF5AF34FFB83EA83EA81FB810F
:1047E0008491FC81F81708F055C08AE0A82EB12CFE
:1047F000C12CD12CE12CF12C00E010E0252D362D20
:104800004981582D692D722D832D942D0E94143CC1
:10481000522E632E4983852E962E272E382E492E12
:104820002C812F5F2C83DACF9AE0A92EB12CC12CDA
:10483000D12CE12CF12C00E010E0252D362D498102
:10484000582D692D722D832D942D0E94143C5901F1
:104850006A017B018C01EA81FB818191FB83EA8300
:10486000082E000C990BC097E92FEE0FEE0B9C0160
:104870004E2F5E2F6E2F7E2F8E2F9E2F0E94423D39
:10488000522E632E4983852E962E272E382E492EA2
:10489000739499CFAD80BE80CF80D884E984FA84A8
:1048A0000B851C852F85388949895A896B897C89B4
:1048B0008D899E890E94143CA52CB62CC980D82CC9
:1048C000E92CF22C032D142D0E94423DE091600151
:1048D000EE2311F00E94FC3CEF89F88D2083318398
:1048E0004283538364837583868397830E941B0C62
:1048F00010928E01FE85F093910168960FB6F894A0
:10490000DEBF0FBECDBFDF91CF911F910F91FF9002
:10491000EF90DF90CF90BF90AF909F908F907F905F
:104920006F905F904F903F902F9008952F923F92FD
:104930004F925F926F927F928F929F92AF92BF92AF
:10494000CF92DF92EF92FF920F931F93CF93DF935B
:10495000CDB7DEB760970FB6F894DEBF0FBECDBF00
:104960001092900110928F010E94B0222F87388BF5
:10497000942E852E762E672E582E492EE091850195
:10498000E13108F066C0F0E0E853FB4D0C94E53BE4
:10499000D9248525EC25DA26E7271328AF28D62841
:1049A000FB2847298729BD29E2290C2A372A622AB0
:1049B000A72A70907D0180907E0190907F01E09108
:1049C0008001ED83E0918101EC83B0918201F0914F
:1049D0008301E0918401209086013090870140900E
:1049E00088015090890160908A0180918B018983B0
:1049F000A0918C01AA8380918D018B83272D382D66
:104A0000492D5D816C817B2F8F2F9E2FA0E00E940E
:104A1000693DC1F1BCF12FEF3FEF4FEF5FEF6FEF5B
:104A20007FEF8FEF9FE7A72CB82CC92CDD80EC809F
:104A3000FB2E0F2F1E2F0E94573D51016201E62CC5
:104A4000F9800A811B810E94603DF4F581E080932A
:104A5000900160960FB6F894DEBF0FBECDBFDF9118
:104A6000CF911F910F91FF90EF90DF90CF90BF906B
:104A7000AF909F908F907F906F905F904F903F90FE
:104A80002F9008955D816C81A0E00E94693DE1F066
:104A900020E030E040E050E060E070E080E090E84E
:104AA000A72CB82CC92CDD80EC80FB2E0F2F1E2FDD
:104AB0000E94573D51016201E62CF9800A811B8159
:104AC0000E94603D09F014F6272D382D492D5D8197
:104AD0006C817B2F8F2F9E2F51016201E62CF98074
:104AE0000A811B810E94423D20937501309376011B
:104AF00040937701509378016093790170937A0124
:104B000080937B0190937C01A4CF70907D01809075
:104B10007E0190907F01E0918001ED83E091810121
:104B2000EC83B0918201F0918301E09184012090A7
:104B300086013090870140908801509089016090F3
:104B40008A0180918B018983A0918C01AA83809135
:104B50008D018B83272D382D492D5D816C817B2F15
:104B60008F2F9E2FA0E00E94693D1CF52150310936
:104B70004109510961097109810990485101620196
:104B8000E62CF9800A811B810E94603D0CF45ECF07
:104B90009101A201662D79818A819B81A72CB82C75
:104BA000C92CDD80EC80FB2E0F2F1E2F0E94573D5D
:104BB0009BCF5D816C81A0E00E94693D49F39058D4
:104BC00051016201E62CF9800A811B810E94603D3F
:104BD00011F00CF03BCFDCCFA0918601A983E091CE
:104BE0008701EA83809188018B83A0918901AC833E
:104BF000E0918A01ED8380918B018E8330908C014E
:104C000020908D0129813A814B815A2F6E2F782F68
:104C1000832D922DA0E00E94693D21F1A0917D019C
:104C2000AF83E0917E01E88780917F018987A09121
:104C30008001AA87E0918101EB87809182018C87B6
:104C4000A0918301AD87E0918401EE872F813885A3
:104C500049855A856B85782F8A2F9E2FA0E00E9468
:104C6000693D89F4109275011092760110927701D6
:104C7000109278011092790110927A0110927B01C2
:104C800010927C01E6CE29813A814B815C816D8155
:104C90007E81832D922DAFEF0E94693D79F52F81A2
:104CA000388549855A856B857C858D859E8521153E
:104CB000310541055105610571058105904809F4EB
:104CC000C5CEAF80B884C984DA84EB84FC840D85BA
:104CD0001E8529813A814B815C816D817E81832D86
:104CE000922D0E94143CAF84B888C92CD82CE72C94
:104CF000F62C052D142D0E946E3CF6CE2F813885A2
:104D000049855A856B857C858D859E85AFEF0E9490
:104D1000693D91F429813A814B815C816D817E816D
:104D2000832D922D21153105410551056105710530
:104D30008105904831F68ACE29818F8128273A81D2
:104D4000A8853A274B81E9854E275C818A855827BB
:104D50006D81AB856A277E81EC857E278D858325D5
:104D60009E859225A0E00E94693D0CF096C4AF801C
:104D7000B884C984DA84EB84FC840D851E8520E028
:104D800030E040E050E060E070E080E090E80E94B9
:104D90006E3C59016A017B018C0129813A814B816A
:104DA0005C816D817E81832D922D0E94603D0CF48B
:104DB0004DCE87CF80917D018F83A0917E01A88702
:104DC000E0917F01E987809180018A87A09181012C
:104DD000AB87E0918201EC87809183018D87A09160
:104DE0008401AE872F81388549855A856B857E2F52
:104DF0009A2FA0E00E94693D21F481E080938F0109
:104E000028CEE0918601E983809187018A83A09171
:104E10008801AB83E0918901EC8380918A018D83C5
:104E2000A0918B01AE8330908C0120908D0129815F
:104E30003A814B815E2F682F7A2F832D922DA0E02F
:104E40000E94693D51F12F853889492D582D672DD4
:104E5000762D852D942D0E94693DF9F029813A81A6
:104E60004B815E2F6D817E81832D922DAFEF0E944D
:104E7000693D09F053C02F853889492D582D672D7C
:104E8000762D852D942D211531054105510561059E
:104E900071058105904809F4D9CDAF84B888C92C33
:104EA000D82CE72CF62C052D142D29813A814B8125
:104EB0005C816D817E81832D922D0E94143C722E27
:104EC000832E942E5A836983B72FF82FE92F21154B
:104ED000310541055105610571058105904869F469
:104EE0002F81388549855A856B857C858D859E8582
:104EF000AFEF0E94693D09F4A9CDAF80B884C984A1
:104F0000DA84EB84FC840D851E85272D382D492DF0
:104F10005A8169817B2F8F2F9E2FEDCE2F85388967
:104F2000492D582D672D762D852D942DAFEF0E949C
:104F3000693D99F429813A814B815C816D817E8143
:104F4000832D922D2115310541055105610571050E
:104F50008105904809F0A1CF79CD2981EF852E27D1
:104F60003A81888938274B8149255C8158256D8194
:104F700067257E817625832D8525922D9425A0E0B9
:104F80000E94693D0CF0ADC3AF84B888C92CD82C01
:104F9000E72CF62C052D142D20E030E040E050E009
:104FA00060E070E080E090E80E946E3C59016A0188
:104FB0007B018C0129813A814B815C816D817E81ED
:104FC000832D922D0E94603D0CF440CD66CFA090C1
:104FD0007D01B0907E01C0907F01D0908001E09073
:104FE0008101F0908201009183011091840195016B
:104FF000A601B701C801A0E00E94693D09F4FDCEF9
:10500000209186013091870140918801509189015A
:1050100060918A0170918B0180918C0190918D013A
:105020000E946C3C61CD2F8538890E9465374B0109
:105030005C0120917D0130917E0140917F01509172
:105040008001609181017091820180918301909132
:1050500084010E946537A50194010E9481366B018D
:105060007C01209186013091870140918801509107
:10507000890160918A0170918B0180918C019091DE
:105080008D010E946537A50194010E948136A70118
:1050900096010E94D7396B017C012B013C01E894F9
:1050A00077F82FEF3FEF4FE75FE7C301B2010E94B0
:1050B0009E3A81110BC02FEF3FEF4FE75FE7C3012F
:1050C000B2010E94773618160CF4C0CCA7019601E5
:1050D000C701B6010E949E3A8111B8CCA701960182
:1050E000C501B4010E946A396B017C012FEE39E5DC
:1050F0004FEF5EE50E94053987FFA8CC2FEE39E51A
:105100004FEF5EEDC701B6010E94773618160CF01E
:105110009DCC46015701E894B7F82FEF3FEF4FE7DA
:105120005FE7C501B4010E949E3A81110BC02FEFC9
:105130003FEF4FE75FE7C501B4010E9477361816CD
:105140000CF484CCA7019601C701B6010E949E3AD7
:1051500081117CCCC701B6010E94F336C5CC2F85E6
:1051600038890E9465376B017C012091860130915E
:105170008701409188015091890160918A01709165
:105180008B0180918C0190918D010E946537A70160
:1051900096010E94813625E33AEF4EE85CE30E94D7
:1051A0006A390E94273AA7019601AEC02F85388937
:1051B0000E9465376B017C01209186013091870147
:1051C000409188015091890160918A0170918B0111
:1051D00080918C0190918D010E946537A701960105
:1051E0000E94813625E33AEF4EE85CE30E946A397B
:1051F0000E947C36D8CF2F8538890E9465374B01B5
:105200005C01209186013091870140918801509185
:10521000890160918A0170918B0180918C0190913C
:105220008D010E946537A50194010E94813625E316
:105230003AEF4EE85CE30E946A390E94793A6B01CA
:105240007C012B013C01E89477F82FEF3FEF4FE70B
:105250005FE7C301B2010E949E3A81110BC02FEF9C
:105260003FEF4FE75FE7C301B2010E9477361816A0
:105270000CF4C3CDA7019601C701B6010E949E3A66
:105280008111BBCDA5019401C701B6012BCF2F859C
:1052900038890E9465374B015C012091860130916D
:1052A0008701409188015091890160918A01709134
:1052B0008B0180918C0190918D010E946537A50131
:1052C00094010E9481366B017C0120E030E040E8CF
:1052D0005FEB0E94773687FDB9CB20E030E040E8F5
:1052E0005FE3C701B6010E94053918160CF4AECB76
:1052F000C701B6010E942D3620EE3EE245E652E49B
:105300000E946A39A50194010E946A3925CF2F8530
:1053100038890E9465374B015C01209186013091EC
:105320008701409188015091890160918A017091B3
:105330008B0180918C0190918D010E946537A501B0
:1053400094010E9481366B017C0120E030E040E84E
:105350005FEB0E94773687FD79CB20E030E040E8B4
:105360005FE3C701B6010E94053918160CF46ECB35
:10537000C701B6010E94AF35BFCF2F8538890E9483
:1053800065376B017C012091860130918701409146
:1053900088015091890160918A0170918B018091FF
:1053A0008C0190918D010E946537A70196010E94A2
:1053B00081360E94483620EE3EE245E652E40E94E5
:1053C0006A39F1CE2F8538890E9465376B017C01DF
:1053D0002091860130918701409188015091890187
:1053E00060918A0170918B0180918C0190918D0167
:1053F0000E946537A70196010E9481364B015C012E
:1054000020E030E0A9010E94773687FD1FCBC5015F
:10541000B4010E94353AC7CE2F8538890E9465377E
:105420006B017C01209186013091870140918801B8
:105430005091890160918A0170918B0180918C015A
:1054400090918D010E946537A70196010E948136D7
:105450004B015C0120E030E0A9010E94773618166C
:105460000CF0F4CAC501B4010E9412399CCE2F85FC
:1054700038890E9465376B017C012091860130914B
:105480008701409188015091890160918A01709152
:105490008B0180918C0190918D010E946537A7014D
:1054A00096010E9481364B015C0120E030E0A901A9
:1054B0000E94773618160CF0C9CAC501B4010E94C3
:1054C000223971CE10918601E0918701EA83A09183
:1054D0008801A983B0918901F0918A01E0918B0143
:1054E000F0908C0100918D01212F3A81AD016F2F39
:1054F0007E2F8F2D902F2115310541055105610516
:1055000071058105A0E89A0709F4A0CAA0E00E94ED
:10551000693D54F40E94FC3C122F3A834983B52F15
:10552000F62FE72FF82E092F109375018A818093AB
:105530007601A981A0937701B0937801F093790166
:10554000E0937A01F0927B0100937C0182CA709013
:1055500086018090870190908801E0918901ED8318
:10556000E0918A01EC83B0918B01F0918C01E09184
:105570008D0120907D0130907E0140907F01509000
:10558000800160908101809182018983A0918301D3
:10559000AA83809184018B83272D382D492D5D812D
:1055A0006C817B2F8F2F9E2FA0E00E94693D09F018
:1055B0000CF44FC02FEF3FEF4FEF5FEF6FEF7FEF38
:1055C0008FEF9FE7A72CB82CC92CDD80EC80FB2E39
:1055D0000F2F1E2F0E94573D51016201E62CF980CA
:1055E0000A811B810E94603D0CF430CA272D382DA2
:1055F000492D5D816C817B2F8F2F9E2F5101620180
:10560000E62CF9800A811B810E94423D122F3A83C9
:105610004983B52FF62FE72FF82E092FA0E00E941F
:10562000693D5CF4A1E00E944B3D122F3A8349830F
:10563000B52FF62FE72FF82E092F212F3A81498118
:105640005B2F6F2F7E2F8F2D902F01E00E94253D25
:105650004BCA5D816C81A0E00E94693D39F220E077
:1056600030E040E050E060E070E080E090E8A72C9F
:10567000B82CC92CDD80EC80FB2E0F2F1E2F0E9432
:10568000573D51016201E62CF9800A811B810E947D
:10569000603D09F00CF4AACFD9C9AF80B884C984A1
:1056A000DA84EB84FC840D851E852FEF3FEF4FEFEE
:1056B0005FEF6FEF7FEF8FEF9FE70E946E3C590126
:1056C0006A017B018C0129813A814B815C816D816A
:1056D0007E81832D922D0E94603D11F00CF0B6C9A1
:1056E000F0CAAF84B888C92CD82CE72CF62C052D2D
:1056F000142D2FEF3FEF4FEF5FEF6FEF7FEF8FEF47
:105700009FE70E946E3C59016A017B018C0129814F
:105710003A814B815C816D817E81832D922D0E9427
:10572000603D11F00CF092C9B8CB6F927F928F92CE
:105730009F92AF92BF92CF92DF92EF92FF920F9320
:105740001F93CF93DF93CDB7DEB766970FB6F8946C
:10575000DEBF0FBECDBF80919101813009F04AC0FC
:105760008BE692E00E94A5110E942018009186010C
:1057700010918701209188013091890140918A011F
:1057800050918B0160918C0170918D0181E00E949C
:10579000D9220E94951060E083E00E94A61065E087
:1057A00084E00E94A6106AE085E00E94A6106FE0E7
:1057B00086E00E94A61047E060E08BE692E00E943F
:1057C000F50D85EC97E00E94DE0F66960FB6F89413
:1057D000DEBF0FBECDBFDF91CF911F910F91FF9024
:1057E000EF90DF90CF90BF90AF909F908F907F9081
:1057F0006F9008958BE692E00E94A5110E942018F8
:105800008091910181113DC081E00E940C1042E025
:1058100060E08BE692E00E94F50D80919101882373
:1058200009F443C0E0918501F0E0EE0FFF1FE75E51
:10583000F74F859194910E94DE0F80919101823003
:10584000B9F583E00E940C1080919101833008F03B
:105850004EC084E00E949B1145E060E08BE692E040
:105860000E94F50D80E598E00E94DE0F0E946C1A00
:1058700047E060E08BE692E00E94F50D8BE398E054
:10588000A2CF00918601109187012091880130916B
:10589000890140918A0150918B0160918C01709136
:1058A0008D0181E00E94D922B2CF84E098E0C3CF7D
:1058B000833029F48091850186508A3020F483E07A
:1058C0000E949B11C1CF00917D0110917E0120911A
:1058D0007F0130918001409181015091820160915E
:1058E00083017091840183E00E94D922ADCF44E00E
:1058F00060E08BE692E00E94F50D80919001882394
:1059000029F08FEE97E00E94DE0FA6CF80918F01E5
:10591000882319F08AED97E0F6CFE0911D02F0E0C0
:10592000EF5AF34F04910E94B02249015A016B01D2
:105930002091750130917601409177015091780165
:105940006091790170917A01FE0131963F01FF93D8
:10595000EF937C0180917B0190917C010E94AB0AC6
:10596000182F8DE30E94F90F0F900F90143190F4CF
:1059700000E083E190E07C01E11AF1080E151F04BC
:105980002CF480E20E94F90F0F5FF8CFC3010E9450
:10599000C81762CF8E010D5E1F4FF30181913F0149
:1059A0000E94F90F06151705C1F78EE70E94F90F3F
:1059B00053CFEF92FF920F931F93CF93DF93CDB707
:1059C000DEB728970FB6F894DEBF0FBECDBFE82E26
:1059D000F62E142F222379F00E946D1F28960FB601
:1059E000F894DEBF0FBECDBFDF91CF911F910F9115
:1059F000FF90EF9008950E94B80C002379F188235E
:105A0000C1F08091940191E08927809394018111E4
:105A100004C080919301809392010E94201880918C
:105A20009101811104C081E00E940C10D7CF83E066
:105A3000FBCF80919101833089F680919001811193
:105A4000CDCF80918F018111C9CF0E94E81281EDE5
:105A500098E00E94FE0F0E942018C0CF6FE08111D5
:105A600006C08091910161E1813009F063E0EE2090
:105A700089F080918E016150882311F06FEF680FDB
:105A800060938E0180919101813009F071C00E9474
:105A9000F910A4CFFF2051F080918E0190E0019683
:105AA00070E00E94903B80938E01ECCF112309F4AB
:105AB00095CF80919101813009F45DC0E8F082308A
:105AC00009F488C0833009F089CF80918E0181303C
:105AD00009F4CCC008F4C7C0823009F07FCF8091B0
